{
  "contractName": "Paper",
  "abi": [
    {
      "inputs": [],
      "stateMutability": "nonpayable",
      "type": "constructor"
    },
    {
      "anonymous": false,
      "inputs": [
        {
          "indexed": true,
          "internalType": "address",
          "name": "_owner",
          "type": "address"
        },
        {
          "indexed": true,
          "internalType": "address",
          "name": "_to",
          "type": "address"
        },
        {
          "indexed": false,
          "internalType": "uint256",
          "name": "_value",
          "type": "uint256"
        }
      ],
      "name": "Approval",
      "type": "event"
    },
    {
      "anonymous": false,
      "inputs": [
        {
          "indexed": true,
          "internalType": "address",
          "name": "_from",
          "type": "address"
        },
        {
          "indexed": true,
          "internalType": "address",
          "name": "_to",
          "type": "address"
        },
        {
          "indexed": false,
          "internalType": "uint256",
          "name": "_value",
          "type": "uint256"
        }
      ],
      "name": "Burn",
      "type": "event"
    },
    {
      "anonymous": false,
      "inputs": [
        {
          "indexed": true,
          "internalType": "address",
          "name": "_from",
          "type": "address"
        },
        {
          "indexed": true,
          "internalType": "address",
          "name": "_to",
          "type": "address"
        },
        {
          "indexed": false,
          "internalType": "uint256",
          "name": "_value",
          "type": "uint256"
        }
      ],
      "name": "Mint",
      "type": "event"
    },
    {
      "anonymous": false,
      "inputs": [
        {
          "indexed": true,
          "internalType": "address",
          "name": "_from",
          "type": "address"
        },
        {
          "indexed": true,
          "internalType": "address",
          "name": "_to",
          "type": "address"
        },
        {
          "indexed": false,
          "internalType": "uint256",
          "name": "_value",
          "type": "uint256"
        }
      ],
      "name": "Transfer",
      "type": "event"
    },
    {
      "inputs": [
        {
          "internalType": "address",
          "name": "",
          "type": "address"
        },
        {
          "internalType": "address",
          "name": "",
          "type": "address"
        }
      ],
      "name": "allowance",
      "outputs": [
        {
          "internalType": "uint256",
          "name": "",
          "type": "uint256"
        }
      ],
      "stateMutability": "view",
      "type": "function",
      "constant": true
    },
    {
      "inputs": [
        {
          "internalType": "address",
          "name": "",
          "type": "address"
        }
      ],
      "name": "balanceOf",
      "outputs": [
        {
          "internalType": "uint256",
          "name": "",
          "type": "uint256"
        }
      ],
      "stateMutability": "view",
      "type": "function",
      "constant": true
    },
    {
      "inputs": [],
      "name": "decimals",
      "outputs": [
        {
          "internalType": "uint8",
          "name": "",
          "type": "uint8"
        }
      ],
      "stateMutability": "view",
      "type": "function",
      "constant": true
    },
    {
      "inputs": [],
      "name": "name",
      "outputs": [
        {
          "internalType": "string",
          "name": "",
          "type": "string"
        }
      ],
      "stateMutability": "view",
      "type": "function",
      "constant": true
    },
    {
      "inputs": [],
      "name": "nulladdr",
      "outputs": [
        {
          "internalType": "address",
          "name": "",
          "type": "address"
        }
      ],
      "stateMutability": "view",
      "type": "function",
      "constant": true
    },
    {
      "inputs": [],
      "name": "owner",
      "outputs": [
        {
          "internalType": "address",
          "name": "",
          "type": "address"
        }
      ],
      "stateMutability": "view",
      "type": "function",
      "constant": true
    },
    {
      "inputs": [],
      "name": "symbol",
      "outputs": [
        {
          "internalType": "string",
          "name": "",
          "type": "string"
        }
      ],
      "stateMutability": "view",
      "type": "function",
      "constant": true
    },
    {
      "inputs": [],
      "name": "totalSupply",
      "outputs": [
        {
          "internalType": "uint256",
          "name": "",
          "type": "uint256"
        }
      ],
      "stateMutability": "view",
      "type": "function",
      "constant": true
    },
    {
      "inputs": [
        {
          "internalType": "address",
          "name": "_to",
          "type": "address"
        },
        {
          "internalType": "uint256",
          "name": "_value",
          "type": "uint256"
        }
      ],
      "name": "transfer",
      "outputs": [
        {
          "internalType": "bool",
          "name": "success",
          "type": "bool"
        }
      ],
      "stateMutability": "nonpayable",
      "type": "function"
    },
    {
      "inputs": [
        {
          "internalType": "address",
          "name": "_spender",
          "type": "address"
        },
        {
          "internalType": "uint256",
          "name": "_value",
          "type": "uint256"
        }
      ],
      "name": "approve",
      "outputs": [
        {
          "internalType": "bool",
          "name": "success",
          "type": "bool"
        }
      ],
      "stateMutability": "nonpayable",
      "type": "function"
    },
    {
      "inputs": [
        {
          "internalType": "address",
          "name": "_from",
          "type": "address"
        },
        {
          "internalType": "address",
          "name": "_to",
          "type": "address"
        },
        {
          "internalType": "uint256",
          "name": "_value",
          "type": "uint256"
        }
      ],
      "name": "transferFrom",
      "outputs": [
        {
          "internalType": "bool",
          "name": "success",
          "type": "bool"
        }
      ],
      "stateMutability": "nonpayable",
      "type": "function"
    },
    {
      "inputs": [
        {
          "internalType": "address",
          "name": "_to",
          "type": "address"
        },
        {
          "internalType": "uint256",
          "name": "_value",
          "type": "uint256"
        }
      ],
      "name": "mint",
      "outputs": [
        {
          "internalType": "bool",
          "name": "success",
          "type": "bool"
        }
      ],
      "stateMutability": "nonpayable",
      "type": "function"
    },
    {
      "inputs": [
        {
          "internalType": "uint256",
          "name": "_value",
          "type": "uint256"
        }
      ],
      "name": "burn",
      "outputs": [
        {
          "internalType": "bool",
          "name": "success",
          "type": "bool"
        }
      ],
      "stateMutability": "nonpayable",
      "type": "function"
    }
  ],
  "bytecode": "0x60806040526040518060400160405280600981526020017f5061706572436f696e00000000000000000000000000000000000000000000008152506001908051906020019062000051929190620001b5565b506040518060400160405280600581526020017f5041504552000000000000000000000000000000000000000000000000000000815250600290805190602001906200009f929190620001b5565b5066038d7ea4c680006003556002600460006101000a81548160ff021916908360ff1602179055506000600460016101000a81548173ffffffffffffffffffffffffffffffffffffffff021916908373ffffffffffffffffffffffffffffffffffffffff1602179055503480156200011657600080fd5b506402540be52c6003546200012c919062000265565b600560003373ffffffffffffffffffffffffffffffffffffffff1673ffffffffffffffffffffffffffffffffffffffff16815260200190815260200160002081905550336000806101000a81548173ffffffffffffffffffffffffffffffffffffffff021916908373ffffffffffffffffffffffffffffffffffffffff1602179055506200033b565b828054620001c390620002a7565b90600052602060002090601f016020900481019282620001e7576000855562000233565b82601f106200020257805160ff191683800117855562000233565b8280016001018555821562000233579182015b828111156200023257825182559160200191906001019062000215565b5b50905062000242919062000246565b5090565b5b808211156200026157600081600090555060010162000247565b5090565b600062000272826200029d565b91506200027f836200029d565b925082620002925762000291620002dd565b5b828204905092915050565b6000819050919050565b60006002820490506001821680620002c057607f821691505b60208210811415620002d757620002d66200030c565b5b50919050565b7f4e487b7100000000000000000000000000000000000000000000000000000000600052601260045260246000fd5b7f4e487b7100000000000000000000000000000000000000000000000000000000600052602260045260246000fd5b611178806200034b6000396000f3fe608060405234801561001057600080fd5b50600436106100cf5760003560e01c806342966c681161008c5780638da5cb5b116100665780638da5cb5b1461023c57806395d89b411461025a578063a9059cbb14610278578063dd62ed3e146102a8576100cf565b806342966c68146101be57806370a08231146101ee578063764d093b1461021e576100cf565b806306fdde03146100d4578063095ea7b3146100f257806318160ddd1461012257806323b872dd14610140578063313ce5671461017057806340c10f191461018e575b600080fd5b6100dc6102d8565b6040516100e99190610e0d565b60405180910390f35b61010c60048036038101906101079190610c8c565b610366565b6040516101199190610df2565b60405180910390f35b61012a610458565b6040516101379190610e8f565b60405180910390f35b61015a60048036038101906101559190610c39565b61045e565b6040516101679190610df2565b60405180910390f35b610178610750565b6040516101859190610eaa565b60405180910390f35b6101a860048036038101906101a39190610c8c565b610763565b6040516101b59190610df2565b60405180910390f35b6101d860048036038101906101d39190610ccc565b61082b565b6040516101e59190610df2565b60405180910390f35b61020860048036038101906102039190610bcc565b6108ee565b6040516102159190610e8f565b60405180910390f35b610226610906565b6040516102339190610dd7565b60405180910390f35b61024461092c565b6040516102519190610dd7565b60405180910390f35b610262610950565b60405161026f9190610e0d565b60405180910390f35b610292600480360381019061028d9190610c8c565b6109de565b60405161029f9190610df2565b60405180910390f35b6102c260048036038101906102bd9190610bf9565b610b7d565b6040516102cf9190610e8f565b60405180910390f35b600180546102e590610ff3565b80601f016020809104026020016040519081016040528092919081815260200182805461031190610ff3565b801561035e5780601f106103335761010080835404028352916020019161035e565b820191906000526020600020905b81548152906001019060200180831161034157829003601f168201915b505050505081565b600081600660003373ffffffffffffffffffffffffffffffffffffffff1673ffffffffffffffffffffffffffffffffffffffff16815260200190815260200160002060008573ffffffffffffffffffffffffffffffffffffffff1673ffffffffffffffffffffffffffffffffffffffff168152602001908152602001600020819055508273ffffffffffffffffffffffffffffffffffffffff163373ffffffffffffffffffffffffffffffffffffffff167f8c5be1e5ebec7d5bd14f71427d1e84f3dd0314c0f7b2291e5b200ac8c7c3b925846040516104469190610e8f565b60405180910390a36001905092915050565b60035481565b6000600560008573ffffffffffffffffffffffffffffffffffffffff1673ffffffffffffffffffffffffffffffffffffffff168152602001908152602001600020548211156104e2576040517f08c379a00000000000000000000000000000000000000000000000000000000081526004016104d990610e4f565b60405180910390fd5b600660008573ffffffffffffffffffffffffffffffffffffffff1673ffffffffffffffffffffffffffffffffffffffff16815260200190815260200160002060003373ffffffffffffffffffffffffffffffffffffffff1673ffffffffffffffffffffffffffffffffffffffff168152602001908152602001600020548211156105a1576040517f08c379a000000000000000000000000000000000000000000000000000000000815260040161059890610e6f565b60405180910390fd5b81600560008573ffffffffffffffffffffffffffffffffffffffff1673ffffffffffffffffffffffffffffffffffffffff16815260200190815260200160002060008282546105f09190610ee1565b9250508190555081600560008673ffffffffffffffffffffffffffffffffffffffff1673ffffffffffffffffffffffffffffffffffffffff16815260200190815260200160002060008282546106469190610f37565b9250508190555081600660008673ffffffffffffffffffffffffffffffffffffffff1673ffffffffffffffffffffffffffffffffffffffff16815260200190815260200160002060003373ffffffffffffffffffffffffffffffffffffffff1673ffffffffffffffffffffffffffffffffffffffff16815260200190815260200160002060008282546106d99190610f37565b925050819055508273ffffffffffffffffffffffffffffffffffffffff168473ffffffffffffffffffffffffffffffffffffffff167fddf252ad1be2c89b69c2b068fc378daa952ba7f163c4a11628f55a4df523b3ef8460405161073d9190610e8f565b60405180910390a3600190509392505050565b600460009054906101000a900460ff1681565b600081600560008573ffffffffffffffffffffffffffffffffffffffff1673ffffffffffffffffffffffffffffffffffffffff16815260200190815260200160002060008282546107b49190610ee1565b925050819055508273ffffffffffffffffffffffffffffffffffffffff16600073ffffffffffffffffffffffffffffffffffffffff167fab8530f87dc9b59234c4623bf917212bb2536d647574c8e7e5da92c2ede0c9f8846040516108199190610e8f565b60405180910390a36001905092915050565b600081600560003373ffffffffffffffffffffffffffffffffffffffff1673ffffffffffffffffffffffffffffffffffffffff168152602001908152602001600020600082825461087c9190610f37565b92505081905550600073ffffffffffffffffffffffffffffffffffffffff163373ffffffffffffffffffffffffffffffffffffffff167fbac40739b0d4ca32fa2d82fc91630465ba3eddd1598da6fca393b26fb63b9453846040516108e19190610e8f565b60405180910390a3919050565b60056020528060005260406000206000915090505481565b600460019054906101000a900473ffffffffffffffffffffffffffffffffffffffff1681565b60008054906101000a900473ffffffffffffffffffffffffffffffffffffffff1681565b6002805461095d90610ff3565b80601f016020809104026020016040519081016040528092919081815260200182805461098990610ff3565b80156109d65780601f106109ab576101008083540402835291602001916109d6565b820191906000526020600020905b8154815290600101906020018083116109b957829003601f168201915b505050505081565b600081600560003373ffffffffffffffffffffffffffffffffffffffff1673ffffffffffffffffffffffffffffffffffffffff168152602001908152602001600020541015610a62576040517f08c379a0000000000000000000000000000000000000000000000000000000008152600401610a5990610e2f565b60405180910390fd5b81600560003373ffffffffffffffffffffffffffffffffffffffff1673ffffffffffffffffffffffffffffffffffffffff1681526020019081526020016000206000828254610ab19190610f37565b9250508190555081600560008573ffffffffffffffffffffffffffffffffffffffff1673ffffffffffffffffffffffffffffffffffffffff1681526020019081526020016000206000828254610b079190610ee1565b925050819055508273ffffffffffffffffffffffffffffffffffffffff163373ffffffffffffffffffffffffffffffffffffffff167fddf252ad1be2c89b69c2b068fc378daa952ba7f163c4a11628f55a4df523b3ef84604051610b6b9190610e8f565b60405180910390a36001905092915050565b6006602052816000526040600020602052806000526040600020600091509150505481565b600081359050610bb181611114565b92915050565b600081359050610bc68161112b565b92915050565b600060208284031215610be257610be1611083565b5b6000610bf084828501610ba2565b91505092915050565b60008060408385031215610c1057610c0f611083565b5b6000610c1e85828601610ba2565b9250506020610c2f85828601610ba2565b9150509250929050565b600080600060608486031215610c5257610c51611083565b5b6000610c6086828701610ba2565b9350506020610c7186828701610ba2565b9250506040610c8286828701610bb7565b9150509250925092565b60008060408385031215610ca357610ca2611083565b5b6000610cb185828601610ba2565b9250506020610cc285828601610bb7565b9150509250929050565b600060208284031215610ce257610ce1611083565b5b6000610cf084828501610bb7565b91505092915050565b610d0281610f6b565b82525050565b610d1181610f7d565b82525050565b6000610d2282610ec5565b610d2c8185610ed0565b9350610d3c818560208601610fc0565b610d4581611088565b840191505092915050565b6000610d5d601783610ed0565b9150610d6882611099565b602082019050919050565b6000610d80601483610ed0565b9150610d8b826110c2565b602082019050919050565b6000610da3601783610ed0565b9150610dae826110eb565b602082019050919050565b610dc281610fa9565b82525050565b610dd181610fb3565b82525050565b6000602082019050610dec6000830184610cf9565b92915050565b6000602082019050610e076000830184610d08565b92915050565b60006020820190508181036000830152610e278184610d17565b905092915050565b60006020820190508181036000830152610e4881610d50565b9050919050565b60006020820190508181036000830152610e6881610d73565b9050919050565b60006020820190508181036000830152610e8881610d96565b9050919050565b6000602082019050610ea46000830184610db9565b92915050565b6000602082019050610ebf6000830184610dc8565b92915050565b600081519050919050565b600082825260208201905092915050565b6000610eec82610fa9565b9150610ef783610fa9565b9250827fffffffffffffffffffffffffffffffffffffffffffffffffffffffffffffffff03821115610f2c57610f2b611025565b5b828201905092915050565b6000610f4282610fa9565b9150610f4d83610fa9565b925082821015610f6057610f5f611025565b5b828203905092915050565b6000610f7682610f89565b9050919050565b60008115159050919050565b600073ffffffffffffffffffffffffffffffffffffffff82169050919050565b6000819050919050565b600060ff82169050919050565b60005b83811015610fde578082015181840152602081019050610fc3565b83811115610fed576000848401525b50505050565b6000600282049050600182168061100b57607f821691505b6020821081141561101f5761101e611054565b5b50919050565b7f4e487b7100000000000000000000000000000000000000000000000000000000600052601160045260246000fd5b7f4e487b7100000000000000000000000000000000000000000000000000000000600052602260045260246000fd5b600080fd5b6000601f19601f8301169050919050565b7f42616c616e636520697320696e73756666696369656e74000000000000000000600082015250565b7f42616c616e636520696e73756666696369656e74000000000000000000000000600082015250565b7f4e6f7420616c6c6f77656420746f207472616e73666572000000000000000000600082015250565b61111d81610f6b565b811461112857600080fd5b50565b61113481610fa9565b811461113f57600080fd5b5056fea264697066735822122027d887c5f706465eb4aa3344cb3be85154d6e62c1b8d2a9a62b3af82102dfac764736f6c63430008070033",
  "immutableReferences": {},
  "source": "// SPDX-License-Identifier: MIT\npragma solidity ^0.8.6;\n\ncontract Paper {\n    address public owner;\n    string public name = 'PaperCoin';\n    string public symbol = 'PAPER';\n    uint256 public totalSupply = 1000000000000000;     \n    uint8 public decimals = 2;\n    address public nulladdr = address(0);\n\n    event Transfer(\n        address indexed _from,\n        address indexed _to,\n        uint _value\n    );\n\n    event Approval(\n        address indexed _owner,\n        address indexed _to,\n        uint _value\n    );\n\n    event Mint (\n        address indexed _from,\n        address indexed _to,\n        uint256 _value\n    );\n\n    event Burn (\n        address indexed _from,\n        address indexed _to,\n        uint256 _value\n    );\n\n    \n\n    mapping(address => uint256) public balanceOf;\n    mapping(address => mapping(address => uint256)) public allowance;\n\n    constructor () {\n        // For testing -> Send total supply to contract deployer\n        balanceOf[msg.sender] = totalSupply / 10000000300;\n        owner = msg.sender;\n    }\n\n    function transfer(address _to, uint _value) public returns (bool success){\n        // Catch insufficient balance\n        require(balanceOf[msg.sender] >= _value, \"Balance is insufficient\");\n        // Transfer \n        balanceOf[msg.sender] -= _value;\n        balanceOf[_to] += _value;\n        // Broadcast transfer\n        emit Transfer(msg.sender, _to, _value);\n        return true;\n    }\n\n    function approve(address _spender, uint256 _value) public returns (bool success) {\n        allowance[msg.sender][_spender] = _value;\n        emit Approval(msg.sender, _spender, _value);\n        return true;\n    }\n\n    function transferFrom(address _from, address _to, uint _value) public returns (bool success) {\n        // Catch insufficient balance\n        require(_value <= balanceOf[_from], \"Balance insufficient\");\n        require(_value <= allowance[_from][msg.sender], \"Not allowed to transfer\");\n        // Make transfer\n        balanceOf[_to] += _value;\n        balanceOf[_from] -= _value;\n        allowance[_from][msg.sender] -= _value;\n        emit Transfer(_from, _to, _value);\n        return true;\n    }\n\n    // PAPER Official Mint Function\n    function mint(address _to, uint256 _value) public returns (bool success) {\n        // In our paper simulation allow users to mint if they want to\n        balanceOf[_to] += _value;\n        // Mint from nulladdr\n        emit Mint(address(0), _to, _value);\n        return true;\n    }\n\n    function burn(uint256 _value) public returns (bool success) {\n\n        balanceOf[msg.sender] -= _value;\n        emit Burn(msg.sender, address(0), _value);\n    }\n    \n}\n",
  "sourcePath": "/Users/ethangallucci/Desktop/developer/paper/src/contracts/Paper.sol",
  "compiler": {
    "name": "solc",
    "version": "0.8.7+commit.e28d00a7.Emscripten.clang"
  },
  "schemaVersion": "3.4.3",
  "updatedAt": "2021-11-24T07:55:03.304Z",
  "networkType": "ethereum",
  "devdoc": {
    "kind": "dev",
    "methods": {},
    "version": 1
  },
  "userdoc": {
    "kind": "user",
    "methods": {},
    "version": 1
  }
}